{
  "_format": "hh3-artifact-1",
  "contractName": "Todo",
  "sourceName": "contracts/Todo.sol",
  "abi": [
    {
      "inputs": [],
      "stateMutability": "nonpayable",
      "type": "constructor"
    },
    {
      "anonymous": false,
      "inputs": [
        {
          "indexed": true,
          "internalType": "uint256",
          "name": "taskId",
          "type": "uint256"
        },
        {
          "indexed": false,
          "internalType": "string",
          "name": "description",
          "type": "string"
        }
      ],
      "name": "TaskAdded",
      "type": "event"
    },
    {
      "anonymous": false,
      "inputs": [
        {
          "indexed": true,
          "internalType": "uint256",
          "name": "taskId",
          "type": "uint256"
        }
      ],
      "name": "TaskCompleted",
      "type": "event"
    },
    {
      "inputs": [
        {
          "internalType": "string",
          "name": "_description",
          "type": "string"
        }
      ],
      "name": "addTask",
      "outputs": [],
      "stateMutability": "nonpayable",
      "type": "function"
    },
    {
      "inputs": [
        {
          "internalType": "uint256",
          "name": "_taskId",
          "type": "uint256"
        }
      ],
      "name": "completeTask",
      "outputs": [],
      "stateMutability": "nonpayable",
      "type": "function"
    },
    {
      "inputs": [],
      "name": "getAllTasks",
      "outputs": [
        {
          "components": [
            {
              "internalType": "string",
              "name": "description",
              "type": "string"
            },
            {
              "internalType": "bool",
              "name": "completed",
              "type": "bool"
            }
          ],
          "internalType": "struct Todo.Task[]",
          "name": "",
          "type": "tuple[]"
        }
      ],
      "stateMutability": "view",
      "type": "function"
    },
    {
      "inputs": [
        {
          "internalType": "uint256",
          "name": "_taskId",
          "type": "uint256"
        }
      ],
      "name": "getTask",
      "outputs": [
        {
          "internalType": "string",
          "name": "",
          "type": "string"
        },
        {
          "internalType": "bool",
          "name": "",
          "type": "bool"
        }
      ],
      "stateMutability": "view",
      "type": "function"
    },
    {
      "inputs": [
        {
          "internalType": "uint256",
          "name": "",
          "type": "uint256"
        }
      ],
      "name": "tasks",
      "outputs": [
        {
          "internalType": "string",
          "name": "description",
          "type": "string"
        },
        {
          "internalType": "bool",
          "name": "completed",
          "type": "bool"
        }
      ],
      "stateMutability": "view",
      "type": "function"
    }
  ],
  "bytecode": "0x6080604052348015600e575f5ffd5b506108e98061001c5f395ff3fe608060405234801561000f575f5ffd5b5060043610610055575f3560e01c80631d65e77e146100595780636723856214610083578063779900b4146100985780638d977672146100ad578063e1e29558146100c0575b5f5ffd5b61006c61006736600461057a565b6100d3565b60405161007a9291906105bf565b60405180910390f35b6100966100913660046105f6565b6101fd565b005b6100a06102b5565b60405161007a91906106a9565b61006c6100bb36600461057a565b6103ae565b6100966100ce36600461057a565b610465565b5f80546060919083106101235760405162461bcd60e51b815260206004820152601360248201527215185cdac8191bd95cc81b9bdd08195e1a5cdd606a1b60448201526064015b60405180910390fd5b5f5f848154811061013657610136610722565b905f5260205f2090600202016040518060400160405290815f8201805461015c90610736565b80601f016020809104026020016040519081016040528092919081815260200182805461018890610736565b80156101d35780601f106101aa576101008083540402835291602001916101d3565b820191905f5260205f20905b8154815290600101906020018083116101b657829003601f168201915b50505091835250506001919091015460ff1615156020918201528151910151909590945092505050565b604080518082019091528181525f602082018190528054600181018255908052815160029091027f290decd9548b62a8d60345a988386fc84ba6bc95484008f6362f93160ef3e5630190819061025390826107ba565b50602091909101516001918201805460ff19169115159190911790555f5461027b9190610875565b7f2ee7ce8bac091b03a0c391c07ee88a246bdd72bdc6b1ef1ce4d99220595d32c5826040516102aa919061089a565b60405180910390a250565b60605f805480602002602001604051908101604052809291908181526020015f905b828210156103a5578382905f5260205f2090600202016040518060400160405290815f8201805461030790610736565b80601f016020809104026020016040519081016040528092919081815260200182805461033390610736565b801561037e5780601f106103555761010080835404028352916020019161037e565b820191905f5260205f20905b81548152906001019060200180831161036157829003601f168201915b505050918352505060019182015460ff1615156020918201529183529290920191016102d7565b50505050905090565b5f81815481106103bc575f80fd5b905f5260205f2090600202015f91509050805f0180546103db90610736565b80601f016020809104026020016040519081016040528092919081815260200182805461040790610736565b80156104525780601f1061042957610100808354040283529160200191610452565b820191905f5260205f20905b81548152906001019060200180831161043557829003601f168201915b5050506001909301549192505060ff1682565b5f5481106104ab5760405162461bcd60e51b815260206004820152601360248201527215185cdac8191bd95cc81b9bdd08195e1a5cdd606a1b604482015260640161011a565b5f81815481106104bd576104bd610722565b5f91825260209091206001600290920201015460ff16156105195760405162461bcd60e51b815260206004820152601660248201527515185cdac8185b1c9958591e4818dbdb5c1b195d195960521b604482015260640161011a565b60015f828154811061052d5761052d610722565b5f9182526020822060029190910201600101805460ff19169215159290921790915560405182917fc1fa7142cfb933d0855114a3bffde296944c30b727f297c14d0db4d553d3a5c791a250565b5f6020828403121561058a575f5ffd5b5035919050565b5f81518084528060208401602086015e5f602082860101526020601f19601f83011685010191505092915050565b604081525f6105d16040830185610591565b905082151560208301529392505050565b634e487b7160e01b5f52604160045260245ffd5b5f60208284031215610606575f5ffd5b813567ffffffffffffffff81111561061c575f5ffd5b8201601f8101841361062c575f5ffd5b803567ffffffffffffffff811115610646576106466105e2565b604051601f8201601f19908116603f0116810167ffffffffffffffff81118282101715610675576106756105e2565b60405281815282820160200186101561068c575f5ffd5b816020840160208301375f91810160200191909152949350505050565b5f602082016020835280845180835260408501915060408160051b8601019250602086015f5b8281101561071657603f1987860301845281518051604087526106f56040880182610591565b602092830151151597830197909752509384019391909101906001016106cf565b50929695505050505050565b634e487b7160e01b5f52603260045260245ffd5b600181811c9082168061074a57607f821691505b60208210810361076857634e487b7160e01b5f52602260045260245ffd5b50919050565b601f8211156107b557805f5260205f20601f840160051c810160208510156107935750805b601f840160051c820191505b818110156107b2575f815560010161079f565b50505b505050565b815167ffffffffffffffff8111156107d4576107d46105e2565b6107e8816107e28454610736565b8461076e565b6020601f82116001811461081a575f83156108035750848201515b5f19600385901b1c1916600184901b1784556107b2565b5f84815260208120601f198516915b828110156108495787850151825560209485019460019092019101610829565b508482101561086657868401515f19600387901b60f8161c191681555b50505050600190811b01905550565b8181038181111561089457634e487b7160e01b5f52601160045260245ffd5b92915050565b602081525f6108ac6020830184610591565b939250505056fea26469706673582212205585fd205debba5b0120f7ec0ee8e43aa51633cb170e8f3d43de117c9535ab1b64736f6c634300081c0033",
  "linkReferences": {},
  "deployedLinkReferences": {},
  "immutableReferences": {},
  "inputSourceName": "project/contracts/Todo.sol",
  "buildInfoId": "solc-0_8_28-eb636ff20792650c811a392e16e5c8928e043b14"
}